{
  "address": "0x8A791620dd6260079BF849Dc5567aDC3F2FdC318",
  "abi": [
    {
      "anonymous": false,
      "inputs": [
        {
          "indexed": false,
          "internalType": "address",
          "name": "_address",
          "type": "address"
        },
        {
          "indexed": false,
          "internalType": "bytes32",
          "name": "publicKey",
          "type": "bytes32"
        }
      ],
      "name": "NewDevice",
      "type": "event"
    },
    {
      "anonymous": false,
      "inputs": [
        {
          "indexed": false,
          "internalType": "address",
          "name": "_address",
          "type": "address"
        }
      ],
      "name": "NewMember",
      "type": "event"
    },
    {
      "anonymous": false,
      "inputs": [
        {
          "indexed": false,
          "internalType": "enum UpgradeV5.upgradeType",
          "name": "_upgradeType",
          "type": "uint8"
        },
        {
          "indexed": false,
          "internalType": "bytes32",
          "name": "ipfsHash",
          "type": "bytes32"
        }
      ],
      "name": "NewUpgrade",
      "type": "event"
    },
    {
      "anonymous": false,
      "inputs": [
        {
          "indexed": true,
          "internalType": "address",
          "name": "previousOwner",
          "type": "address"
        },
        {
          "indexed": true,
          "internalType": "address",
          "name": "newOwner",
          "type": "address"
        }
      ],
      "name": "OwnershipTransferred",
      "type": "event"
    },
    {
      "inputs": [
        {
          "internalType": "address",
          "name": "_address",
          "type": "address"
        },
        {
          "internalType": "bytes32",
          "name": "publicKey",
          "type": "bytes32"
        }
      ],
      "name": "addDevice",
      "outputs": [],
      "stateMutability": "nonpayable",
      "type": "function"
    },
    {
      "inputs": [
        {
          "internalType": "address",
          "name": "_address",
          "type": "address"
        }
      ],
      "name": "addToAllowlist",
      "outputs": [
        {
          "internalType": "bool",
          "name": "",
          "type": "bool"
        }
      ],
      "stateMutability": "nonpayable",
      "type": "function"
    },
    {
      "inputs": [
        {
          "internalType": "enum UpgradeV5.upgradeType",
          "name": "_upgradeType",
          "type": "uint8"
        },
        {
          "internalType": "uint8",
          "name": "_version",
          "type": "uint8"
        }
      ],
      "name": "deleteUpgrade",
      "outputs": [],
      "stateMutability": "nonpayable",
      "type": "function"
    },
    {
      "inputs": [],
      "name": "firmwareId",
      "outputs": [
        {
          "internalType": "bytes32",
          "name": "",
          "type": "bytes32"
        }
      ],
      "stateMutability": "view",
      "type": "function"
    },
    {
      "inputs": [
        {
          "internalType": "enum UpgradeV5.upgradeType",
          "name": "_upgradeType",
          "type": "uint8"
        },
        {
          "internalType": "uint8",
          "name": "_version",
          "type": "uint8"
        }
      ],
      "name": "getHash",
      "outputs": [
        {
          "internalType": "bytes32",
          "name": "",
          "type": "bytes32"
        }
      ],
      "stateMutability": "view",
      "type": "function"
    },
    {
      "inputs": [
        {
          "internalType": "enum UpgradeV5.upgradeType",
          "name": "_upgradeType",
          "type": "uint8"
        }
      ],
      "name": "getLatestHash",
      "outputs": [
        {
          "internalType": "bytes32",
          "name": "",
          "type": "bytes32"
        }
      ],
      "stateMutability": "view",
      "type": "function"
    },
    {
      "inputs": [
        {
          "internalType": "enum UpgradeV5.upgradeType",
          "name": "_upgradeType",
          "type": "uint8"
        }
      ],
      "name": "getVersion",
      "outputs": [
        {
          "internalType": "uint8",
          "name": "",
          "type": "uint8"
        }
      ],
      "stateMutability": "view",
      "type": "function"
    },
    {
      "inputs": [
        {
          "internalType": "address",
          "name": "_owner",
          "type": "address"
        },
        {
          "internalType": "uint8",
          "name": "_minorVersion",
          "type": "uint8"
        },
        {
          "internalType": "uint8",
          "name": "_majorVersion",
          "type": "uint8"
        },
        {
          "internalType": "bytes32",
          "name": "_firmwareId",
          "type": "bytes32"
        }
      ],
      "name": "initialize",
      "outputs": [],
      "stateMutability": "nonpayable",
      "type": "function"
    },
    {
      "inputs": [
        {
          "internalType": "address",
          "name": "_address",
          "type": "address"
        }
      ],
      "name": "isAllowed",
      "outputs": [
        {
          "internalType": "bool",
          "name": "",
          "type": "bool"
        }
      ],
      "stateMutability": "view",
      "type": "function"
    },
    {
      "inputs": [
        {
          "internalType": "address",
          "name": "_address",
          "type": "address"
        }
      ],
      "name": "isDevice",
      "outputs": [
        {
          "internalType": "bool",
          "name": "",
          "type": "bool"
        }
      ],
      "stateMutability": "view",
      "type": "function"
    },
    {
      "inputs": [
        {
          "internalType": "enum UpgradeV5.upgradeType",
          "name": "_upgradeType",
          "type": "uint8"
        },
        {
          "internalType": "bytes32",
          "name": "_ipfsHash",
          "type": "bytes32"
        }
      ],
      "name": "newUpgrade",
      "outputs": [],
      "stateMutability": "nonpayable",
      "type": "function"
    },
    {
      "inputs": [],
      "name": "owner",
      "outputs": [
        {
          "internalType": "address",
          "name": "",
          "type": "address"
        }
      ],
      "stateMutability": "view",
      "type": "function"
    },
    {
      "inputs": [],
      "name": "renounceOwnership",
      "outputs": [],
      "stateMutability": "nonpayable",
      "type": "function"
    },
    {
      "inputs": [
        {
          "internalType": "address",
          "name": "newOwner",
          "type": "address"
        }
      ],
      "name": "transferOwnership",
      "outputs": [],
      "stateMutability": "nonpayable",
      "type": "function"
    }
  ],
  "transactionHash": "0xe3dfc0a8a0e3eb93f1e6b42d04df6052f80868890256074aee7b02797c2cc1f8",
  "args": [],
  "solcInputHash": "9de8991433041668d04e22740cb26eba",
  "bytecode": "0x608060405234801561001057600080fd5b50612161806100206000396000f3fe608060405234801561001057600080fd5b50600436106100ea5760003560e01c8063914b44d91161008c578063e3fc372f11610066578063e3fc372f14610247578063f2fde38b14610277578063f6fb664114610293578063f8e86ece146102b1576100ea565b8063914b44d9146101df578063babcc539146101fb578063bb3279e61461022b576100ea565b806360ef9f58116100c857806360ef9f581461016b5780636dc7a35f14610187578063715018a6146101b75780638da5cb5b146101c1576100ea565b80631c7c61a5146100ef5780634ced11f91461011f5780635cae81311461014f575b600080fd5b61010960048036038101906101049190611992565b6102e1565b6040516101169190611dcf565b60405180910390f35b61013960048036038101906101349190611992565b61039d565b6040516101469190611f53565b60405180910390f35b6101696004803603810190610164919061192f565b610450565b005b610185600480360381019061018091906119bb565b610800565b005b6101a1600480360381019061019c91906118ca565b610ae6565b6040516101ae9190611db4565b60405180910390f35b6101bf610b41565b005b6101c9610c7e565b6040516101d69190611d70565b60405180910390f35b6101f960048036038101906101f491906118f3565b610ca8565b005b610215600480360381019061021091906118ca565b610e3e565b6040516102229190611db4565b60405180910390f35b610245600480360381019061024091906119f7565b610e94565b005b610261600480360381019061025c91906119f7565b61110c565b60405161026e9190611dcf565b60405180910390f35b610291600480360381019061028c91906118ca565b611219565b005b61029b6113c5565b6040516102a89190611dcf565b60405180910390f35b6102cb60048036038101906102c691906118ca565b6113cb565b6040516102d89190611db4565b60405180910390f35b6000600115156102f033610e3e565b1515146102fc57600080fd5b61039682606a600085600181111561033d577f4e487b7100000000000000000000000000000000000000000000000000000000600052602160045260246000fd5b6001811115610375577f4e487b7100000000000000000000000000000000000000000000000000000000600052602160045260246000fd5b815260200190815260200160002060009054906101000a900460ff1661110c565b9050919050565b6000600115156103ac33610e3e565b1515146103b857600080fd5b606a60008360018111156103f5577f4e487b7100000000000000000000000000000000000000000000000000000000600052602160045260246000fd5b600181111561042d577f4e487b7100000000000000000000000000000000000000000000000000000000600052602160045260246000fd5b815260200190815260200160002060009054906101000a900460ff169050919050565b600060019054906101000a900460ff1680610476575060008054906101000a900460ff16155b6104b5576040517f08c379a00000000000000000000000000000000000000000000000000000000081526004016104ac90611e73565b60405180910390fd5b60008060019054906101000a900460ff161590508015610505576001600060016101000a81548160ff02191690831515021790555060016000806101000a81548160ff0219169083151502179055505b60011515606760009054906101000a900460ff161515141561055c576040517f08c379a000000000000000000000000000000000000000000000000000000000815260040161055390611f13565b60405180910390fd5b61056461152a565b84606560006101000a81548173ffffffffffffffffffffffffffffffffffffffff021916908373ffffffffffffffffffffffffffffffffffffffff1602179055508473ffffffffffffffffffffffffffffffffffffffff163373ffffffffffffffffffffffffffffffffffffffff161461060457610603606560009054906101000a900473ffffffffffffffffffffffffffffffffffffffff16611219565b5b82606a6000806001811115610642577f4e487b7100000000000000000000000000000000000000000000000000000000600052602160045260246000fd5b600181111561067a577f4e487b7100000000000000000000000000000000000000000000000000000000600052602160045260246000fd5b815260200190815260200160002060006101000a81548160ff021916908360ff16021790555083606a60006001808111156106de577f4e487b7100000000000000000000000000000000000000000000000000000000600052602160045260246000fd5b6001811115610716577f4e487b7100000000000000000000000000000000000000000000000000000000600052602160045260246000fd5b815260200190815260200160002060006101000a81548160ff021916908360ff1602179055506001606b6000606560009054906101000a900473ffffffffffffffffffffffffffffffffffffffff1673ffffffffffffffffffffffffffffffffffffffff1673ffffffffffffffffffffffffffffffffffffffff16815260200190815260200160002060006101000a81548160ff021916908315150217905550816066819055506001606760006101000a81548160ff02191690831515021790555080156107f95760008060016101000a81548160ff0219169083151502179055505b5050505050565b610808611613565b73ffffffffffffffffffffffffffffffffffffffff16610826610c7e565b73ffffffffffffffffffffffffffffffffffffffff161461087c576040517f08c379a000000000000000000000000000000000000000000000000000000000815260040161087390611eb3565b60405180910390fd5b6000801b8114156108c2576040517f08c379a00000000000000000000000000000000000000000000000000000000081526004016108b990611e93565b60405180910390fd5b6001606a6000846001811115610901577f4e487b7100000000000000000000000000000000000000000000000000000000600052602160045260246000fd5b6001811115610939577f4e487b7100000000000000000000000000000000000000000000000000000000600052602160045260246000fd5b815260200190815260200160002060008282829054906101000a900460ff166109629190611f7f565b92506101000a81548160ff021916908360ff16021790555080606960008460018111156109b8577f4e487b7100000000000000000000000000000000000000000000000000000000600052602160045260246000fd5b60018111156109f0577f4e487b7100000000000000000000000000000000000000000000000000000000600052602160045260246000fd5b81526020019081526020016000206000606a6000866001811115610a3d577f4e487b7100000000000000000000000000000000000000000000000000000000600052602160045260246000fd5b6001811115610a75577f4e487b7100000000000000000000000000000000000000000000000000000000600052602160045260246000fd5b815260200190815260200160002060009054906101000a900460ff1660ff1660ff168152602001908152602001600020819055507fc891fab420935b5444f6b32b722173640f8b97f4b55485ca53bb9215ab57a0308282604051610ada929190611dea565b60405180910390a15050565b600080606860008473ffffffffffffffffffffffffffffffffffffffff1673ffffffffffffffffffffffffffffffffffffffff1681526020019081526020016000205414610b375760019050610b3c565b600090505b919050565b610b49611613565b73ffffffffffffffffffffffffffffffffffffffff16610b67610c7e565b73ffffffffffffffffffffffffffffffffffffffff1614610bbd576040517f08c379a0000000000000000000000000000000000000000000000000000000008152600401610bb490611eb3565b60405180910390fd5b600073ffffffffffffffffffffffffffffffffffffffff16603360009054906101000a900473ffffffffffffffffffffffffffffffffffffffff1673ffffffffffffffffffffffffffffffffffffffff167f8be0079c531659141344cd1fd0a4f28419497f9722a3daafe3b4186f6b6457e060405160405180910390a36000603360006101000a81548173ffffffffffffffffffffffffffffffffffffffff021916908373ffffffffffffffffffffffffffffffffffffffff160217905550565b6000603360009054906101000a900473ffffffffffffffffffffffffffffffffffffffff16905090565b610cb0611613565b73ffffffffffffffffffffffffffffffffffffffff16610cce610c7e565b73ffffffffffffffffffffffffffffffffffffffff1614610d24576040517f08c379a0000000000000000000000000000000000000000000000000000000008152600401610d1b90611eb3565b60405180910390fd5b610d2d82610ae6565b15610d6d576040517f08c379a0000000000000000000000000000000000000000000000000000000008152600401610d6490611f33565b60405180910390fd5b6000801b811415610db3576040517f08c379a0000000000000000000000000000000000000000000000000000000008152600401610daa90611e93565b60405180910390fd5b80606860008473ffffffffffffffffffffffffffffffffffffffff1673ffffffffffffffffffffffffffffffffffffffff16815260200190815260200160002081905550610e00826113cb565b507f0d38976fd808988dcfd41eaacc15b6e8922bae80ed0841602da9701225c152008282604051610e32929190611d8b565b60405180910390a15050565b6000606b60008373ffffffffffffffffffffffffffffffffffffffff1673ffffffffffffffffffffffffffffffffffffffff16815260200190815260200160002060009054906101000a900460ff169050919050565b610e9c611613565b73ffffffffffffffffffffffffffffffffffffffff16610eba610c7e565b73ffffffffffffffffffffffffffffffffffffffff1614610f10576040517f08c379a0000000000000000000000000000000000000000000000000000000008152600401610f0790611eb3565b60405180910390fd5b6000801b610f1e838361110c565b1415610f5f576040517f08c379a0000000000000000000000000000000000000000000000000000000008152600401610f5690611ef3565b60405180910390fd5b6001610f6a8361039d565b60ff161015610fae576040517f08c379a0000000000000000000000000000000000000000000000000000000008152600401610fa590611ed3565b60405180910390fd5b6000801b60696000846001811115610fef577f4e487b7100000000000000000000000000000000000000000000000000000000600052602160045260246000fd5b6001811115611027577f4e487b7100000000000000000000000000000000000000000000000000000000600052602160045260246000fd5b815260200190815260200160002060008360ff1660ff168152602001908152602001600020819055506001606a600084600181111561108f577f4e487b7100000000000000000000000000000000000000000000000000000000600052602160045260246000fd5b60018111156110c7577f4e487b7100000000000000000000000000000000000000000000000000000000600052602160045260246000fd5b815260200190815260200160002060008282829054906101000a900460ff166110f09190611fb6565b92506101000a81548160ff021916908360ff1602179055505050565b60006001151561111b33610e3e565b15151461112757600080fd5b60006111328461039d565b60ff161015611176576040517f08c379a000000000000000000000000000000000000000000000000000000000815260040161116d90611e33565b60405180910390fd5b606960008460018111156111b3577f4e487b7100000000000000000000000000000000000000000000000000000000600052602160045260246000fd5b60018111156111eb577f4e487b7100000000000000000000000000000000000000000000000000000000600052602160045260246000fd5b815260200190815260200160002060008360ff1660ff16815260200190815260200160002054905092915050565b611221611613565b73ffffffffffffffffffffffffffffffffffffffff1661123f610c7e565b73ffffffffffffffffffffffffffffffffffffffff1614611295576040517f08c379a000000000000000000000000000000000000000000000000000000000815260040161128c90611eb3565b60405180910390fd5b600073ffffffffffffffffffffffffffffffffffffffff168173ffffffffffffffffffffffffffffffffffffffff161415611305576040517f08c379a00000000000000000000000000000000000000000000000000000000081526004016112fc90611e13565b60405180910390fd5b8073ffffffffffffffffffffffffffffffffffffffff16603360009054906101000a900473ffffffffffffffffffffffffffffffffffffffff1673ffffffffffffffffffffffffffffffffffffffff167f8be0079c531659141344cd1fd0a4f28419497f9722a3daafe3b4186f6b6457e060405160405180910390a380603360006101000a81548173ffffffffffffffffffffffffffffffffffffffff021916908373ffffffffffffffffffffffffffffffffffffffff16021790555050565b60665481565b60006113d5611613565b73ffffffffffffffffffffffffffffffffffffffff166113f3610c7e565b73ffffffffffffffffffffffffffffffffffffffff1614611449576040517f08c379a000000000000000000000000000000000000000000000000000000000815260040161144090611eb3565b60405180910390fd5b61145282610e3e565b15611492576040517f08c379a000000000000000000000000000000000000000000000000000000000815260040161148990611e53565b60405180910390fd5b6001606b60008473ffffffffffffffffffffffffffffffffffffffff1673ffffffffffffffffffffffffffffffffffffffff16815260200190815260200160002060006101000a81548160ff0219169083151502179055507fb4dcb6dd550f27b5917ebf674899ea7046ff91790c6f9f01431617ad39819db2826040516115199190611d70565b60405180910390a160019050919050565b600060019054906101000a900460ff1680611550575060008054906101000a900460ff16155b61158f576040517f08c379a000000000000000000000000000000000000000000000000000000000815260040161158690611e73565b60405180910390fd5b60008060019054906101000a900460ff1615905080156115df576001600060016101000a81548160ff02191690831515021790555060016000806101000a81548160ff0219169083151502179055505b6115e761161b565b6115ef6116f4565b80156116105760008060016101000a81548160ff0219169083151502179055505b50565b600033905090565b600060019054906101000a900460ff1680611641575060008054906101000a900460ff16155b611680576040517f08c379a000000000000000000000000000000000000000000000000000000000815260040161167790611e73565b60405180910390fd5b60008060019054906101000a900460ff1615905080156116d0576001600060016101000a81548160ff02191690831515021790555060016000806101000a81548160ff0219169083151502179055505b80156116f15760008060016101000a81548160ff0219169083151502179055505b50565b600060019054906101000a900460ff168061171a575060008054906101000a900460ff16155b611759576040517f08c379a000000000000000000000000000000000000000000000000000000000815260040161175090611e73565b60405180910390fd5b60008060019054906101000a900460ff1615905080156117a9576001600060016101000a81548160ff02191690831515021790555060016000806101000a81548160ff0219169083151502179055505b60006117b3611613565b905080603360006101000a81548173ffffffffffffffffffffffffffffffffffffffff021916908373ffffffffffffffffffffffffffffffffffffffff1602179055508073ffffffffffffffffffffffffffffffffffffffff16600073ffffffffffffffffffffffffffffffffffffffff167f8be0079c531659141344cd1fd0a4f28419497f9722a3daafe3b4186f6b6457e060405160405180910390a35080156118735760008060016101000a81548160ff0219169083151502179055505b50565b600081359050611885816120d6565b92915050565b60008135905061189a816120ed565b92915050565b6000813590506118af81612104565b92915050565b6000813590506118c481612114565b92915050565b6000602082840312156118dc57600080fd5b60006118ea84828501611876565b91505092915050565b6000806040838503121561190657600080fd5b600061191485828601611876565b92505060206119258582860161188b565b9150509250929050565b6000806000806080858703121561194557600080fd5b600061195387828801611876565b9450506020611964878288016118b5565b9350506040611975878288016118b5565b92505060606119868782880161188b565b91505092959194509250565b6000602082840312156119a457600080fd5b60006119b2848285016118a0565b91505092915050565b600080604083850312156119ce57600080fd5b60006119dc858286016118a0565b92505060206119ed8582860161188b565b9150509250929050565b60008060408385031215611a0a57600080fd5b6000611a18858286016118a0565b9250506020611a29858286016118b5565b9150509250929050565b611a3c81611fea565b82525050565b611a4b81611ffc565b82525050565b611a5a81612008565b82525050565b611a6981612052565b82525050565b6000611a7c602683611f6e565b91507f4f776e61626c653a206e6577206f776e657220697320746865207a65726f206160008301527f64647265737300000000000000000000000000000000000000000000000000006020830152604082019050919050565b6000611ae2600c83611f6e565b91507f56657273696f6e206973203000000000000000000000000000000000000000006000830152602082019050919050565b6000611b22601c83611f6e565b91507f4164647265737320616c726561647920696e20616c6c6f774c697374000000006000830152602082019050919050565b6000611b62602e83611f6e565b91507f496e697469616c697a61626c653a20636f6e747261637420697320616c72656160008301527f647920696e697469616c697a65640000000000000000000000000000000000006020830152604082019050919050565b6000611bc8600983611f6e565b91507f48617368206973203000000000000000000000000000000000000000000000006000830152602082019050919050565b6000611c08602083611f6e565b91507f4f776e61626c653a2063616c6c6572206973206e6f7420746865206f776e65726000830152602082019050919050565b6000611c48601983611f6e565b91507f43616e6e6f742064656c657465203074682076657273696f6e000000000000006000830152602082019050919050565b6000611c88602483611f6e565b91507f48617368206d7573742062652070726573656e7420617420746865206c6f636160008301527f74696f6e000000000000000000000000000000000000000000000000000000006020830152604082019050919050565b6000611cee600e83611f6e565b91507f496e6974206f6e6c79206f6e63650000000000000000000000000000000000006000830152602082019050919050565b6000611d2e601583611f6e565b91507f44657669636520616c72656164792065786973747300000000000000000000006000830152602082019050919050565b611d6a81612045565b82525050565b6000602082019050611d856000830184611a33565b92915050565b6000604082019050611da06000830185611a33565b611dad6020830184611a51565b9392505050565b6000602082019050611dc96000830184611a42565b92915050565b6000602082019050611de46000830184611a51565b92915050565b6000604082019050611dff6000830185611a60565b611e0c6020830184611a51565b9392505050565b60006020820190508181036000830152611e2c81611a6f565b9050919050565b60006020820190508181036000830152611e4c81611ad5565b9050919050565b60006020820190508181036000830152611e6c81611b15565b9050919050565b60006020820190508181036000830152611e8c81611b55565b9050919050565b60006020820190508181036000830152611eac81611bbb565b9050919050565b60006020820190508181036000830152611ecc81611bfb565b9050919050565b60006020820190508181036000830152611eec81611c3b565b9050919050565b60006020820190508181036000830152611f0c81611c7b565b9050919050565b60006020820190508181036000830152611f2c81611ce1565b9050919050565b60006020820190508181036000830152611f4c81611d21565b9050919050565b6000602082019050611f686000830184611d61565b92915050565b600082825260208201905092915050565b6000611f8a82612045565b9150611f9583612045565b92508260ff03821115611fab57611faa612064565b5b828201905092915050565b6000611fc182612045565b9150611fcc83612045565b925082821015611fdf57611fde612064565b5b828203905092915050565b6000611ff582612025565b9050919050565b60008115159050919050565b6000819050919050565b6000819050612020826120c2565b919050565b600073ffffffffffffffffffffffffffffffffffffffff82169050919050565b600060ff82169050919050565b600061205d82612012565b9050919050565b7f4e487b7100000000000000000000000000000000000000000000000000000000600052601160045260246000fd5b7f4e487b7100000000000000000000000000000000000000000000000000000000600052602160045260246000fd5b600281106120d3576120d2612093565b5b50565b6120df81611fea565b81146120ea57600080fd5b50565b6120f681612008565b811461210157600080fd5b50565b6002811061211157600080fd5b50565b61211d81612045565b811461212857600080fd5b5056fea2646970667358221220ff2c865519c85ded0738ec32c4737896fa6b35183ca2ebf85defdc3ffbc72a8864736f6c63430008000033",
  "devdoc": {
    "kind": "dev",
    "methods": {
      "owner()": {
        "details": "Returns the address of the current owner."
      },
      "renounceOwnership()": {
        "details": "Leaves the contract without owner. It will not be possible to call `onlyOwner` functions anymore. Can only be called by the current owner. NOTE: Renouncing ownership will leave the contract without an owner, thereby removing any functionality that is only available to the owner."
      },
      "transferOwnership(address)": {
        "details": "Transfers ownership of the contract to a new account (`newOwner`). Can only be called by the current owner."
      }
    },
    "version": 1
  },
  "userdoc": {
    "kind": "user",
    "methods": {},
    "version": 1
  },
  "storageLayout": {
    "storage": [
      {
        "astId": 136,
        "contract": "contracts/UpgradeV5.sol:UpgradeV5",
        "label": "_initialized",
        "offset": 0,
        "slot": "0",
        "type": "t_bool"
      },
      {
        "astId": 139,
        "contract": "contracts/UpgradeV5.sol:UpgradeV5",
        "label": "_initializing",
        "offset": 1,
        "slot": "0",
        "type": "t_bool"
      },
      {
        "astId": 220,
        "contract": "contracts/UpgradeV5.sol:UpgradeV5",
        "label": "__gap",
        "offset": 0,
        "slot": "1",
        "type": "t_array(t_uint256)50_storage"
      },
      {
        "astId": 10,
        "contract": "contracts/UpgradeV5.sol:UpgradeV5",
        "label": "_owner",
        "offset": 0,
        "slot": "51",
        "type": "t_address"
      },
      {
        "astId": 129,
        "contract": "contracts/UpgradeV5.sol:UpgradeV5",
        "label": "__gap",
        "offset": 0,
        "slot": "52",
        "type": "t_array(t_uint256)49_storage"
      },
      {
        "astId": 1658,
        "contract": "contracts/UpgradeV5.sol:UpgradeV5",
        "label": "manager",
        "offset": 0,
        "slot": "101",
        "type": "t_address"
      },
      {
        "astId": 1660,
        "contract": "contracts/UpgradeV5.sol:UpgradeV5",
        "label": "firmwareId",
        "offset": 0,
        "slot": "102",
        "type": "t_bytes32"
      },
      {
        "astId": 1662,
        "contract": "contracts/UpgradeV5.sol:UpgradeV5",
        "label": "initialized",
        "offset": 0,
        "slot": "103",
        "type": "t_bool"
      },
      {
        "astId": 1669,
        "contract": "contracts/UpgradeV5.sol:UpgradeV5",
        "label": "device",
        "offset": 0,
        "slot": "104",
        "type": "t_mapping(t_address,t_bytes32)"
      },
      {
        "astId": 1676,
        "contract": "contracts/UpgradeV5.sol:UpgradeV5",
        "label": "version",
        "offset": 0,
        "slot": "105",
        "type": "t_mapping(t_enum(upgradeType)1665,t_mapping(t_uint8,t_bytes32))"
      },
      {
        "astId": 1681,
        "contract": "contracts/UpgradeV5.sol:UpgradeV5",
        "label": "currentVersion",
        "offset": 0,
        "slot": "106",
        "type": "t_mapping(t_enum(upgradeType)1665,t_uint8)"
      },
      {
        "astId": 1685,
        "contract": "contracts/UpgradeV5.sol:UpgradeV5",
        "label": "allowList",
        "offset": 0,
        "slot": "107",
        "type": "t_mapping(t_address,t_bool)"
      }
    ],
    "types": {
      "t_address": {
        "encoding": "inplace",
        "label": "address",
        "numberOfBytes": "20"
      },
      "t_array(t_uint256)49_storage": {
        "base": "t_uint256",
        "encoding": "inplace",
        "label": "uint256[49]",
        "numberOfBytes": "1568"
      },
      "t_array(t_uint256)50_storage": {
        "base": "t_uint256",
        "encoding": "inplace",
        "label": "uint256[50]",
        "numberOfBytes": "1600"
      },
      "t_bool": {
        "encoding": "inplace",
        "label": "bool",
        "numberOfBytes": "1"
      },
      "t_bytes32": {
        "encoding": "inplace",
        "label": "bytes32",
        "numberOfBytes": "32"
      },
      "t_enum(upgradeType)1665": {
        "encoding": "inplace",
        "label": "enum UpgradeV5.upgradeType",
        "numberOfBytes": "1"
      },
      "t_mapping(t_address,t_bool)": {
        "encoding": "mapping",
        "key": "t_address",
        "label": "mapping(address => bool)",
        "numberOfBytes": "32",
        "value": "t_bool"
      },
      "t_mapping(t_address,t_bytes32)": {
        "encoding": "mapping",
        "key": "t_address",
        "label": "mapping(address => bytes32)",
        "numberOfBytes": "32",
        "value": "t_bytes32"
      },
      "t_mapping(t_enum(upgradeType)1665,t_mapping(t_uint8,t_bytes32))": {
        "encoding": "mapping",
        "key": "t_enum(upgradeType)1665",
        "label": "mapping(enum UpgradeV5.upgradeType => mapping(uint8 => bytes32))",
        "numberOfBytes": "32",
        "value": "t_mapping(t_uint8,t_bytes32)"
      },
      "t_mapping(t_enum(upgradeType)1665,t_uint8)": {
        "encoding": "mapping",
        "key": "t_enum(upgradeType)1665",
        "label": "mapping(enum UpgradeV5.upgradeType => uint8)",
        "numberOfBytes": "32",
        "value": "t_uint8"
      },
      "t_mapping(t_uint8,t_bytes32)": {
        "encoding": "mapping",
        "key": "t_uint8",
        "label": "mapping(uint8 => bytes32)",
        "numberOfBytes": "32",
        "value": "t_bytes32"
      },
      "t_uint256": {
        "encoding": "inplace",
        "label": "uint256",
        "numberOfBytes": "32"
      },
      "t_uint8": {
        "encoding": "inplace",
        "label": "uint8",
        "numberOfBytes": "1"
      }
    }
  }
}